{
  "contractName": "SolnSquareVerifier",
  "abi": [
    {
      "constant": true,
      "inputs": [
        {
          "name": "interfaceId",
          "type": "bytes4"
        }
      ],
      "name": "supportsInterface",
      "outputs": [
        {
          "name": "",
          "type": "bool"
        }
      ],
      "payable": false,
      "stateMutability": "view",
      "type": "function"
    },
    {
      "constant": true,
      "inputs": [],
      "name": "name",
      "outputs": [
        {
          "name": "",
          "type": "string"
        }
      ],
      "payable": false,
      "stateMutability": "view",
      "type": "function"
    },
    {
      "constant": true,
      "inputs": [
        {
          "name": "tokenId",
          "type": "uint256"
        }
      ],
      "name": "getApproved",
      "outputs": [
        {
          "name": "",
          "type": "address"
        }
      ],
      "payable": false,
      "stateMutability": "view",
      "type": "function"
    },
    {
      "constant": false,
      "inputs": [
        {
          "name": "to",
          "type": "address"
        },
        {
          "name": "tokenId",
          "type": "uint256"
        }
      ],
      "name": "approve",
      "outputs": [],
      "payable": false,
      "stateMutability": "nonpayable",
      "type": "function"
    },
    {
      "constant": false,
      "inputs": [
        {
          "name": "value",
          "type": "bool"
        }
      ],
      "name": "setPaused",
      "outputs": [],
      "payable": false,
      "stateMutability": "nonpayable",
      "type": "function"
    },
    {
      "constant": true,
      "inputs": [],
      "name": "totalSupply",
      "outputs": [
        {
          "name": "",
          "type": "uint256"
        }
      ],
      "payable": false,
      "stateMutability": "view",
      "type": "function"
    },
    {
      "constant": false,
      "inputs": [
        {
          "name": "from",
          "type": "address"
        },
        {
          "name": "to",
          "type": "address"
        },
        {
          "name": "tokenId",
          "type": "uint256"
        }
      ],
      "name": "transferFrom",
      "outputs": [],
      "payable": false,
      "stateMutability": "nonpayable",
      "type": "function"
    },
    {
      "constant": false,
      "inputs": [
        {
          "name": "_myid",
          "type": "bytes32"
        },
        {
          "name": "_result",
          "type": "string"
        }
      ],
      "name": "__callback",
      "outputs": [],
      "payable": false,
      "stateMutability": "nonpayable",
      "type": "function"
    },
    {
      "constant": true,
      "inputs": [],
      "name": "verifier",
      "outputs": [
        {
          "name": "",
          "type": "address"
        }
      ],
      "payable": false,
      "stateMutability": "view",
      "type": "function"
    },
    {
      "constant": true,
      "inputs": [
        {
          "name": "owner",
          "type": "address"
        },
        {
          "name": "index",
          "type": "uint256"
        }
      ],
      "name": "tokenOfOwnerByIndex",
      "outputs": [
        {
          "name": "",
          "type": "uint256"
        }
      ],
      "payable": false,
      "stateMutability": "view",
      "type": "function"
    },
    {
      "constant": false,
      "inputs": [
        {
          "name": "_myid",
          "type": "bytes32"
        },
        {
          "name": "_result",
          "type": "string"
        },
        {
          "name": "_proof",
          "type": "bytes"
        }
      ],
      "name": "__callback",
      "outputs": [],
      "payable": false,
      "stateMutability": "nonpayable",
      "type": "function"
    },
    {
      "constant": false,
      "inputs": [
        {
          "name": "to",
          "type": "address"
        },
        {
          "name": "tokenId",
          "type": "uint256"
        }
      ],
      "name": "mint",
      "outputs": [
        {
          "name": "",
          "type": "bool"
        }
      ],
      "payable": false,
      "stateMutability": "nonpayable",
      "type": "function"
    },
    {
      "constant": false,
      "inputs": [
        {
          "name": "from",
          "type": "address"
        },
        {
          "name": "to",
          "type": "address"
        },
        {
          "name": "tokenId",
          "type": "uint256"
        }
      ],
      "name": "safeTransferFrom",
      "outputs": [],
      "payable": false,
      "stateMutability": "nonpayable",
      "type": "function"
    },
    {
      "constant": true,
      "inputs": [
        {
          "name": "index",
          "type": "uint256"
        }
      ],
      "name": "tokenByIndex",
      "outputs": [
        {
          "name": "",
          "type": "uint256"
        }
      ],
      "payable": false,
      "stateMutability": "view",
      "type": "function"
    },
    {
      "constant": true,
      "inputs": [
        {
          "name": "tokenId",
          "type": "uint256"
        }
      ],
      "name": "ownerOf",
      "outputs": [
        {
          "name": "",
          "type": "address"
        }
      ],
      "payable": false,
      "stateMutability": "view",
      "type": "function"
    },
    {
      "constant": true,
      "inputs": [
        {
          "name": "owner",
          "type": "address"
        }
      ],
      "name": "balanceOf",
      "outputs": [
        {
          "name": "",
          "type": "uint256"
        }
      ],
      "payable": false,
      "stateMutability": "view",
      "type": "function"
    },
    {
      "constant": true,
      "inputs": [],
      "name": "symbol",
      "outputs": [
        {
          "name": "",
          "type": "string"
        }
      ],
      "payable": false,
      "stateMutability": "view",
      "type": "function"
    },
    {
      "constant": false,
      "inputs": [
        {
          "name": "to",
          "type": "address"
        },
        {
          "name": "approved",
          "type": "bool"
        }
      ],
      "name": "setApprovalForAll",
      "outputs": [],
      "payable": false,
      "stateMutability": "nonpayable",
      "type": "function"
    },
    {
      "constant": false,
      "inputs": [
        {
          "name": "from",
          "type": "address"
        },
        {
          "name": "to",
          "type": "address"
        },
        {
          "name": "tokenId",
          "type": "uint256"
        },
        {
          "name": "_data",
          "type": "bytes"
        }
      ],
      "name": "safeTransferFrom",
      "outputs": [],
      "payable": false,
      "stateMutability": "nonpayable",
      "type": "function"
    },
    {
      "constant": true,
      "inputs": [
        {
          "name": "tokenId",
          "type": "uint256"
        }
      ],
      "name": "tokenURI",
      "outputs": [
        {
          "name": "",
          "type": "string"
        }
      ],
      "payable": false,
      "stateMutability": "view",
      "type": "function"
    },
    {
      "constant": true,
      "inputs": [],
      "name": "contractOwner",
      "outputs": [
        {
          "name": "",
          "type": "address"
        }
      ],
      "payable": false,
      "stateMutability": "view",
      "type": "function"
    },
    {
      "constant": true,
      "inputs": [],
      "name": "baseTokenURI",
      "outputs": [
        {
          "name": "",
          "type": "string"
        }
      ],
      "payable": false,
      "stateMutability": "view",
      "type": "function"
    },
    {
      "constant": true,
      "inputs": [
        {
          "name": "owner",
          "type": "address"
        },
        {
          "name": "operator",
          "type": "address"
        }
      ],
      "name": "isApprovedForAll",
      "outputs": [
        {
          "name": "",
          "type": "bool"
        }
      ],
      "payable": false,
      "stateMutability": "view",
      "type": "function"
    },
    {
      "constant": false,
      "inputs": [
        {
          "name": "newOwner",
          "type": "address"
        }
      ],
      "name": "transferOwnership",
      "outputs": [],
      "payable": false,
      "stateMutability": "nonpayable",
      "type": "function"
    },
    {
      "inputs": [
        {
          "name": "verifierAddress",
          "type": "address"
        }
      ],
      "payable": false,
      "stateMutability": "nonpayable",
      "type": "constructor"
    },
    {
      "anonymous": false,
      "inputs": [
        {
          "indexed": false,
          "name": "to",
          "type": "address"
        },
        {
          "indexed": false,
          "name": "tokenId",
          "type": "uint256"
        }
      ],
      "name": "SolutionAdded",
      "type": "event"
    },
    {
      "anonymous": false,
      "inputs": [
        {
          "indexed": true,
          "name": "from",
          "type": "address"
        },
        {
          "indexed": true,
          "name": "to",
          "type": "address"
        },
        {
          "indexed": true,
          "name": "tokenId",
          "type": "uint256"
        }
      ],
      "name": "Transfer",
      "type": "event"
    },
    {
      "anonymous": false,
      "inputs": [
        {
          "indexed": true,
          "name": "owner",
          "type": "address"
        },
        {
          "indexed": true,
          "name": "approved",
          "type": "address"
        },
        {
          "indexed": true,
          "name": "tokenId",
          "type": "uint256"
        }
      ],
      "name": "Approval",
      "type": "event"
    },
    {
      "anonymous": false,
      "inputs": [
        {
          "indexed": true,
          "name": "owner",
          "type": "address"
        },
        {
          "indexed": true,
          "name": "operator",
          "type": "address"
        },
        {
          "indexed": false,
          "name": "approved",
          "type": "bool"
        }
      ],
      "name": "ApprovalForAll",
      "type": "event"
    },
    {
      "anonymous": false,
      "inputs": [
        {
          "indexed": false,
          "name": "caller",
          "type": "address"
        }
      ],
      "name": "Paused",
      "type": "event"
    },
    {
      "anonymous": false,
      "inputs": [
        {
          "indexed": false,
          "name": "caller",
          "type": "address"
        }
      ],
      "name": "Unpaused",
      "type": "event"
    },
    {
      "anonymous": false,
      "inputs": [
        {
          "indexed": false,
          "name": "owner",
          "type": "address"
        },
        {
          "indexed": false,
          "name": "newOwner",
          "type": "address"
        }
      ],
      "name": "OwnershipTransferred",
      "type": "event"
    },
    {
      "constant": false,
      "inputs": [
        {
          "name": "a",
          "type": "uint256[2]"
        },
        {
          "name": "a_p",
          "type": "uint256[2]"
        },
        {
          "name": "b",
          "type": "uint256[2][2]"
        },
        {
          "name": "b_p",
          "type": "uint256[2]"
        },
        {
          "name": "c",
          "type": "uint256[2]"
        },
        {
          "name": "c_p",
          "type": "uint256[2]"
        },
        {
          "name": "h",
          "type": "uint256[2]"
        },
        {
          "name": "k",
          "type": "uint256[2]"
        },
        {
          "name": "input",
          "type": "uint256[2]"
        },
        {
          "name": "to",
          "type": "address"
        },
        {
          "name": "tokenId",
          "type": "uint256"
        }
      ],
      "name": "addSolution",
      "outputs": [
        {
          "name": "",
          "type": "bool"
        }
      ],
      "payable": false,
      "stateMutability": "nonpayable",
      "type": "function"
    },
    {
      "constant": false,
      "inputs": [
        {
          "name": "key",
          "type": "bytes32"
        },
        {
          "name": "to",
          "type": "address"
        },
        {
          "name": "tokenId",
          "type": "uint256"
        }
      ],
      "name": "mintToken",
      "outputs": [
        {
          "name": "",
          "type": "bool"
        }
      ],
      "payable": false,
      "stateMutability": "nonpayable",
      "type": "function"
    },
    {
      "constant": true,
      "inputs": [
        {
          "name": "a",
          "type": "uint256[2]"
        },
        {
          "name": "a_p",
          "type": "uint256[2]"
        },
        {
          "name": "b",
          "type": "uint256[2][2]"
        },
        {
          "name": "b_p",
          "type": "uint256[2]"
        },
        {
          "name": "c",
          "type": "uint256[2]"
        },
        {
          "name": "c_p",
          "type": "uint256[2]"
        },
        {
          "name": "h",
          "type": "uint256[2]"
        },
        {
          "name": "k",
          "type": "uint256[2]"
        },
        {
          "name": "input",
          "type": "uint256[2]"
        }
      ],
      "name": "getKey",
      "outputs": [
        {
          "name": "",
          "type": "bytes32"
        }
      ],
      "payable": false,
      "stateMutability": "pure",
      "type": "function"
    },
    {
      "constant": true,
      "inputs": [
        {
          "name": "key",
          "type": "bytes32"
        }
      ],
      "name": "isSolution",
      "outputs": [
        {
          "name": "",
          "type": "bool"
        }
      ],
      "payable": false,
      "stateMutability": "view",
      "type": "function"
    }
  ],
  "bytecode": "0x60806040523480156200001157600080fd5b50604051602080620048db833981018060405260208110156200003357600080fd5b81019080805190602001909291905050506040518060400160405280600781526020017f55646163697479000000000000000000000000000000000000000000000000008152506040518060400160405280600381526020017f55444100000000000000000000000000000000000000000000000000000000008152506040518060600160405280603f81526020016200489c603f9139336000806101000a81548173ffffffffffffffffffffffffffffffffffffffff021916908373ffffffffffffffffffffffffffffffffffffffff1602179055507f8be0079c531659141344cd1fd0a4f28419497f9722a3daafe3b4186f6b6457e060008060009054906101000a900473ffffffffffffffffffffffffffffffffffffffff16604051808373ffffffffffffffffffffffffffffffffffffffff1673ffffffffffffffffffffffffffffffffffffffff1681526020018273ffffffffffffffffffffffffffffffffffffffff1673ffffffffffffffffffffffffffffffffffffffff1681526020019250505060405180910390a160008060146101000a81548160ff0219169083151502179055506200021a6301ffc9a77c01000000000000000000000000000000000000000000000000000000000262000367640100000000026401000000009004565b620002576380ac58cd7c01000000000000000000000000000000000000000000000000000000000262000367640100000000026401000000009004565b6200029463780e9d637c01000000000000000000000000000000000000000000000000000000000262000367640100000000026401000000009004565b82600f9080519060200190620002ac92919062000423565b508160109080519060200190620002c592919062000423565b508060119080519060200190620002de92919062000423565b506200031c635b5e139f7c01000000000000000000000000000000000000000000000000000000000262000367640100000000026401000000009004565b50505080601360006101000a81548173ffffffffffffffffffffffffffffffffffffffff021916908373ffffffffffffffffffffffffffffffffffffffff16021790555050620004d2565b63ffffffff7c010000000000000000000000000000000000000000000000000000000002817bffffffffffffffffffffffffffffffffffffffffffffffffffffffff19161415620003b757600080fd5b6001806000837bffffffffffffffffffffffffffffffffffffffffffffffffffffffff19167bffffffffffffffffffffffffffffffffffffffffffffffffffffffff1916815260200190815260200160002060006101000a81548160ff02191690831515021790555050565b828054600181600116156101000203166002900490600052602060002090601f016020900481019282601f106200046657805160ff191683800117855562000497565b8280016001018555821562000497579182015b828111156200049657825182559160200191906001019062000479565b5b509050620004a69190620004aa565b5090565b620004cf91905b80821115620004cb576000816000905550600101620004b1565b5090565b90565b6143ba80620004e26000396000f3fe608060405234801561001057600080fd5b50600436106101e1576000357c01000000000000000000000000000000000000000000000000000000009004806342842e0e11610116578063a22cb465116100b4578063ce606ee01161008e578063ce606ee0146111c6578063d547cfb714611210578063e985e9c514611293578063f2fde38b1461130f576101e1565b8063a22cb46514610fca578063b88d4fde1461101a578063c87b56dd1461111f576101e1565b80636352211e116100f05780636352211e14610e115780636e579f9414610e7f57806370a0823114610eef57806395d89b4114610f47576101e1565b806342842e0e14610d1b5780634775a85514610d895780634f6ccce714610dcf576101e1565b80631cbb5733116101835780632b7ac3f31161015d5780632b7ac3f314610aad5780632f745c5914610af757806338bbfa5014610b5957806340c10f1914610cb5576101e1565b80631cbb57331461069257806323b872dd1461097a57806327dc297e146109e8576101e1565b8063095ea7b3116101bf578063095ea7b31461033c5780630bda53b31461038a57806316c38b3c1461064457806318160ddd14610674576101e1565b806301ffc9a7146101e657806306fdde031461024b578063081812fc146102ce575b600080fd5b610231600480360360208110156101fc57600080fd5b8101908080357bffffffffffffffffffffffffffffffffffffffffffffffffffffffff19169060200190929190505050611353565b604051808215151515815260200191505060405180910390f35b6102536113bb565b6040518080602001828103825283818151815260200191508051906020019080838360005b83811015610293578082015181840152602081019050610278565b50505050905090810190601f1680156102c05780820380516001836020036101000a031916815260200191505b509250505060405180910390f35b6102fa600480360360208110156102e457600080fd5b810190808035906020019092919050505061145d565b604051808273ffffffffffffffffffffffffffffffffffffffff1673ffffffffffffffffffffffffffffffffffffffff16815260200191505060405180910390f35b6103886004803603604081101561035257600080fd5b81019080803573ffffffffffffffffffffffffffffffffffffffff1690602001909291908035906020019092919050505061149a565b005b61062e60048036036102808110156103a157600080fd5b8101908080604001906002806020026040519081016040528092919082600260200280828437600081840152601f19601f820116905080830192505050505050919291929080604001906002806020026040519081016040528092919082600260200280828437600081840152601f19601f82011690508083019250505050505091929192908060800190600280602002604051908101604052809291906000905b82821015610497578382604002016002806020026040519081016040528092919082600260200280828437600081840152601f19601f82011690508083019250505050505081526020019060010190610443565b50505050919291929080604001906002806020026040519081016040528092919082600260200280828437600081840152601f19601f820116905080830192505050505050919291929080604001906002806020026040519081016040528092919082600260200280828437600081840152601f19601f820116905080830192505050505050919291929080604001906002806020026040519081016040528092919082600260200280828437600081840152601f19601f820116905080830192505050505050919291929080604001906002806020026040519081016040528092919082600260200280828437600081840152601f19601f820116905080830192505050505050919291929080604001906002806020026040519081016040528092919082600260200280828437600081840152601f19601f820116905080830192505050505050919291929080604001906002806020026040519081016040528092919082600260200280828437600081840152601f19601f820116905080830192505050505050919291929050505061167a565b6040518082815260200191505060405180910390f35b6106726004803603602081101561065a57600080fd5b8101908080351515906020019092919050505061187d565b005b61067c611a20565b6040518082815260200191505060405180910390f35b61096060048036036102c08110156106a957600080fd5b8101908080604001906002806020026040519081016040528092919082600260200280828437600081840152601f19601f820116905080830192505050505050919291929080604001906002806020026040519081016040528092919082600260200280828437600081840152601f19601f82011690508083019250505050505091929192908060800190600280602002604051908101604052809291906000905b8282101561079f578382604002016002806020026040519081016040528092919082600260200280828437600081840152601f19601f8201169050808301925050505050508152602001906001019061074b565b50505050919291929080604001906002806020026040519081016040528092919082600260200280828437600081840152601f19601f820116905080830192505050505050919291929080604001906002806020026040519081016040528092919082600260200280828437600081840152601f19601f820116905080830192505050505050919291929080604001906002806020026040519081016040528092919082600260200280828437600081840152601f19601f820116905080830192505050505050919291929080604001906002806020026040519081016040528092919082600260200280828437600081840152601f19601f820116905080830192505050505050919291929080604001906002806020026040519081016040528092919082600260200280828437600081840152601f19601f820116905080830192505050505050919291929080604001906002806020026040519081016040528092919082600260200280828437600081840152601f19601f8201169050808301925050505050509192919290803573ffffffffffffffffffffffffffffffffffffffff16906020019092919080359060200190929190505050611a2d565b604051808215151515815260200191505060405180910390f35b6109e66004803603606081101561099057600080fd5b81019080803573ffffffffffffffffffffffffffffffffffffffff169060200190929190803573ffffffffffffffffffffffffffffffffffffffff16906020019092919080359060200190929190505050611e80565b005b610aab600480360360408110156109fe57600080fd5b810190808035906020019092919080359060200190640100000000811115610a2557600080fd5b820183602082011115610a3757600080fd5b80359060200191846001830284011164010000000083111715610a5957600080fd5b91908080601f016020809104026020016040519081016040528093929190818152602001838380828437600081840152601f19601f820116905080830192505050505050509192919290505050611ea3565b005b610ab5611ee6565b604051808273ffffffffffffffffffffffffffffffffffffffff1673ffffffffffffffffffffffffffffffffffffffff16815260200191505060405180910390f35b610b4360048036036040811015610b0d57600080fd5b81019080803573ffffffffffffffffffffffffffffffffffffffff16906020019092919080359060200190929190505050611f0c565b6040518082815260200191505060405180910390f35b610cb360048036036060811015610b6f57600080fd5b810190808035906020019092919080359060200190640100000000811115610b9657600080fd5b820183602082011115610ba857600080fd5b80359060200191846001830284011164010000000083111715610bca57600080fd5b91908080601f016020809104026020016040519081016040528093929190818152602001838380828437600081840152601f19601f82011690508083019250505050505050919291929080359060200190640100000000811115610c2d57600080fd5b820183602082011115610c3f57600080fd5b80359060200191846001830284011164010000000083111715610c6157600080fd5b91908080601f016020809104026020016040519081016040528093929190818152602001838380828437600081840152601f19601f820116905080830192505050505050509192919290505050611f7f565b005b610d0160048036036040811015610ccb57600080fd5b81019080803573ffffffffffffffffffffffffffffffffffffffff16906020019092919080359060200190929190505050611f84565b604051808215151515815260200191505060405180910390f35b610d8760048036036060811015610d3157600080fd5b81019080803573ffffffffffffffffffffffffffffffffffffffff169060200190929190803573ffffffffffffffffffffffffffffffffffffffff16906020019092919080359060200190929190505050612048565b005b610db560048036036020811015610d9f57600080fd5b8101908080359060200190929190505050612068565b604051808215151515815260200191505060405180910390f35b610dfb60048036036020811015610de557600080fd5b8101908080359060200190929190505050612092565b6040518082815260200191505060405180910390f35b610e3d60048036036020811015610e2757600080fd5b81019080803590602001909291905050506120c6565b604051808273ffffffffffffffffffffffffffffffffffffffff1673ffffffffffffffffffffffffffffffffffffffff16815260200191505060405180910390f35b610ed560048036036060811015610e9557600080fd5b8101908080359060200190929190803573ffffffffffffffffffffffffffffffffffffffff16906020019092919080359060200190929190505050612103565b604051808215151515815260200191505060405180910390f35b610f3160048036036020811015610f0557600080fd5b81019080803573ffffffffffffffffffffffffffffffffffffffff1690602001909291905050506127aa565b6040518082815260200191505060405180910390f35b610f4f6127fa565b6040518080602001828103825283818151815260200191508051906020019080838360005b83811015610f8f578082015181840152602081019050610f74565b50505050905090810190601f168015610fbc5780820380516001836020036101000a031916815260200191505b509250505060405180910390f35b61101860048036036040811015610fe057600080fd5b81019080803573ffffffffffffffffffffffffffffffffffffffff16906020019092919080351515906020019092919050505061289c565b005b61111d6004803603608081101561103057600080fd5b81019080803573ffffffffffffffffffffffffffffffffffffffff169060200190929190803573ffffffffffffffffffffffffffffffffffffffff169060200190929190803590602001909291908035906020019064010000000081111561109757600080fd5b8201836020820111156110a957600080fd5b803590602001918460018302840111640100000000831117156110cb57600080fd5b91908080601f016020809104026020016040519081016040528093929190818152602001838380828437600081840152601f19601f8201169050808301925050505050505091929192905050506129d6565b005b61114b6004803603602081101561113557600080fd5b81019080803590602001909291905050506129fc565b6040518080602001828103825283818151815260200191508051906020019080838360005b8381101561118b578082015181840152602081019050611170565b50505050905090810190601f1680156111b85780820380516001836020036101000a031916815260200191505b509250505060405180910390f35b6111ce612ac3565b604051808273ffffffffffffffffffffffffffffffffffffffff1673ffffffffffffffffffffffffffffffffffffffff16815260200191505060405180910390f35b611218612aec565b6040518080602001828103825283818151815260200191508051906020019080838360005b8381101561125857808201518184015260208101905061123d565b50505050905090810190601f1680156112855780820380516001836020036101000a031916815260200191505b509250505060405180910390f35b6112f5600480360360408110156112a957600080fd5b81019080803573ffffffffffffffffffffffffffffffffffffffff169060200190929190803573ffffffffffffffffffffffffffffffffffffffff169060200190929190505050612b8e565b604051808215151515815260200191505060405180910390f35b6113516004803603602081101561132557600080fd5b81019080803573ffffffffffffffffffffffffffffffffffffffff169060200190929190505050612c22565b005b600060016000837bffffffffffffffffffffffffffffffffffffffffffffffffffffffff19167bffffffffffffffffffffffffffffffffffffffffffffffffffffffff1916815260200190815260200160002060009054906101000a900460ff169050919050565b6060600f8054600181600116156101000203166002900480601f0160208091040260200160405190810160405280929190818152602001828054600181600116156101000203166002900480156114535780601f1061142857610100808354040283529160200191611453565b820191906000526020600020905b81548152906001019060200180831161143657829003601f168201915b5050505050905090565b60006003600083815260200190815260200160002060009054906101000a900473ffffffffffffffffffffffffffffffffffffffff169050919050565b60006114a5826120c6565b90508073ffffffffffffffffffffffffffffffffffffffff168373ffffffffffffffffffffffffffffffffffffffff16141561152c576040517f08c379a000000000000000000000000000000000000000000000000000000000815260040180806020018281038252602a8152602001806142f9602a913960400191505060405180910390fd5b611534612ac3565b73ffffffffffffffffffffffffffffffffffffffff163373ffffffffffffffffffffffffffffffffffffffff16148061157357506115728184612b8e565b5b6115c8576040517f08c379a000000000000000000000000000000000000000000000000000000000815260040180806020018281038252604b815260200180614323604b913960600191505060405180910390fd5b826003600084815260200190815260200160002060006101000a81548173ffffffffffffffffffffffffffffffffffffffff021916908373ffffffffffffffffffffffffffffffffffffffff160217905550818373ffffffffffffffffffffffffffffffffffffffff168273ffffffffffffffffffffffffffffffffffffffff167f8c5be1e5ebec7d5bd14f71427d1e84f3dd0314c0f7b2291e5b200ac8c7c3b92560405160405180910390a4505050565b6000898989898989898989604051602001808a600260200280838360005b838110156116b3578082015181840152602081019050611698565b5050505090500189600260200280838360005b838110156116e15780820151818401526020810190506116c6565b505050509050018860026000925b818410156117355782846020020151600260200280838360005b83811015611724578082015181840152602081019050611709565b5050505090500192600101926116ef565b9250505087600260200280838360005b83811015611760578082015181840152602081019050611745565b5050505090500186600260200280838360005b8381101561178e578082015181840152602081019050611773565b5050505090500185600260200280838360005b838110156117bc5780820151818401526020810190506117a1565b5050505090500184600260200280838360005b838110156117ea5780820151818401526020810190506117cf565b5050505090500183600260200280838360005b838110156118185780820151818401526020810190506117fd565b5050505090500182600260200280838360005b8381101561184657808201518184015260208101905061182b565b5050505090500199505050505050505050506040516020818303038152906040528051906020012090509998505050505050505050565b6000809054906101000a900473ffffffffffffffffffffffffffffffffffffffff1673ffffffffffffffffffffffffffffffffffffffff163373ffffffffffffffffffffffffffffffffffffffff1614611922576040517f08c379a000000000000000000000000000000000000000000000000000000000815260040180806020018281038252602181526020018061436e6021913960400191505060405180910390fd5b80600060146101000a81548160ff021916908315150217905550600060149054906101000a900460ff16156119b9577f62e78cea01bee320cd4e420270b5ea74000d11b0c9f74754ebdbfc544b05a25833604051808273ffffffffffffffffffffffffffffffffffffffff1673ffffffffffffffffffffffffffffffffffffffff16815260200191505060405180910390a1611a1d565b7f5db9ee0a495bf2e6ff9c91a7834c1ba4fdd244a5e8aa4e537bd38aeae4b073aa33604051808273ffffffffffffffffffffffffffffffffffffffff1673ffffffffffffffffffffffffffffffffffffffff16815260200191505060405180910390a15b50565b6000600880549050905090565b6000611a3761403c565b6040518061016001604052808e81526020018d81526020018c81526020018b81526020018a81526020018981526020018881526020018781526020018681526020018573ffffffffffffffffffffffffffffffffffffffff16815260200184815250905060008d8d8d8d8d8d8d8d8d604051602001808a600260200280838360005b83811015611ad4578082015181840152602081019050611ab9565b5050505090500189600260200280838360005b83811015611b02578082015181840152602081019050611ae7565b505050509050018860026000925b81841015611b565782846020020151600260200280838360005b83811015611b45578082015181840152602081019050611b2a565b505050509050019260010192611b10565b9250505087600260200280838360005b83811015611b81578082015181840152602081019050611b66565b5050505090500186600260200280838360005b83811015611baf578082015181840152602081019050611b94565b5050505090500185600260200280838360005b83811015611bdd578082015181840152602081019050611bc2565b5050505090500184600260200280838360005b83811015611c0b578082015181840152602081019050611bf0565b5050505090500183600260200280838360005b83811015611c39578082015181840152602081019050611c1e565b5050505090500182600260200280838360005b83811015611c67578082015181840152602081019050611c4c565b5050505090500199505050505050505050506040516020818303038152906040528051906020012090508160146000838152602001908152602001600020600082015181600001906002611cbc9291906140e2565b50602082015181600201906002611cd49291906140e2565b50604082015181600401906002611cec929190614122565b50606082015181600801906002611d049291906140e2565b50608082015181600a01906002611d1c9291906140e2565b5060a082015181600c01906002611d349291906140e2565b5060c082015181600e01906002611d4c9291906140e2565b5060e082015181601001906002611d649291906140e2565b5061010082015181601201906002611d7d9291906140e2565b506101208201518160140160006101000a81548173ffffffffffffffffffffffffffffffffffffffff021916908373ffffffffffffffffffffffffffffffffffffffff160217905550610140820151816015015590505060016015600083815260200190815260200160002060006101000a81548160ff0219169083151502179055507f3a01cc868bdb36c1d9b8a262a8ad25064b23ac175b3f8e4453f1daf8ff6bac0d8585604051808373ffffffffffffffffffffffffffffffffffffffff1673ffffffffffffffffffffffffffffffffffffffff1681526020018281526020019250505060405180910390a16001925050509b9a5050505050505050505050565b611e8a3382612e6d565b611e9357600080fd5b611e9e838383612f02565b505050565b611ee2828260006040519080825280601f01601f191660200182016040528015611edc5781602001600182028038833980820191505090505b50611f7f565b5050565b601360009054906101000a900473ffffffffffffffffffffffffffffffffffffffff1681565b6000611f17836127aa565b8210611f2257600080fd5b600660008473ffffffffffffffffffffffffffffffffffffffff1673ffffffffffffffffffffffffffffffffffffffff1681526020019081526020016000208281548110611f6c57fe5b9060005260206000200154905092915050565b505050565b60008060009054906101000a900473ffffffffffffffffffffffffffffffffffffffff1673ffffffffffffffffffffffffffffffffffffffff163373ffffffffffffffffffffffffffffffffffffffff161461202b576040517f08c379a000000000000000000000000000000000000000000000000000000000815260040180806020018281038252602181526020018061436e6021913960400191505060405180910390fd5b6120358383612f26565b61203e82612f47565b6001905092915050565b612063838383604051806020016040528060008152506129d6565b505050565b60006015600083815260200190815260200160002060009054906101000a900460ff169050919050565b600061209c611a20565b82106120a757600080fd5b600882815481106120b457fe5b90600052602060002001549050919050565b60006002600083815260200190815260200160002060009054906101000a900473ffffffffffffffffffffffffffffffffffffffff169050919050565b60006015600085815260200190815260200160002060009054906101000a900460ff1615612199576040517f08c379a00000000000000000000000000000000000000000000000000000000081526004018080602001828103825260178152602001807f536f6c7574696f6e206d75737420626520756e6971756500000000000000000081525060200191505060405180910390fd5b6121a161403c565b6014600086815260200190815260200160002060405180610160016040529081600082016002806020026040519081016040528092919082600280156121fc576020028201915b8154815260200190600101908083116121e8575b5050505050815260200160028201600280602002604051908101604052809291908260028015612241576020028201915b81548152602001906001019080831161222d575b5050505050815260200160048201600280602002604051908101604052809291906000905b828210156122bf578382600202016002806020026040519081016040528092919082600280156122ab576020028201915b815481526020019060010190808311612297575b505050505081526020019060010190612266565b50505050815260200160088201600280602002604051908101604052809291908260028015612303576020028201915b8154815260200190600101908083116122ef575b50505050508152602001600a8201600280602002604051908101604052809291908260028015612348576020028201915b815481526020019060010190808311612334575b50505050508152602001600c820160028060200260405190810160405280929190826002801561238d576020028201915b815481526020019060010190808311612379575b50505050508152602001600e82016002806020026040519081016040528092919082600280156123d2576020028201915b8154815260200190600101908083116123be575b5050505050815260200160108201600280602002604051908101604052809291908260028015612417576020028201915b815481526020019060010190808311612403575b505050505081526020016012820160028060200260405190810160405280929190826002801561245c576020028201915b815481526020019060010190808311612448575b505050505081526020016014820160009054906101000a900473ffffffffffffffffffffffffffffffffffffffff1673ffffffffffffffffffffffffffffffffffffffff1673ffffffffffffffffffffffffffffffffffffffff1681526020016015820154815250509050601360009054906101000a900473ffffffffffffffffffffffffffffffffffffffff1673ffffffffffffffffffffffffffffffffffffffff1663fe01ff62826000015183602001518460400151856060015186608001518760a001518860c001518960e001518a61010001516040518a63ffffffff167c0100000000000000000000000000000000000000000000000000000000028152600401808a600260200280838360005b8381101561258957808201518184015260208101905061256e565b5050505090500189600260200280838360005b838110156125b757808201518184015260208101905061259c565b505050509050018860026000925b8184101561260b5782846020020151600260200280838360005b838110156125fa5780820151818401526020810190506125df565b5050505090500192600101926125c5565b9250505087600260200280838360005b8381101561263657808201518184015260208101905061261b565b5050505090500186600260200280838360005b83811015612664578082015181840152602081019050612649565b5050505090500185600260200280838360005b83811015612692578082015181840152602081019050612677565b5050505090500184600260200280838360005b838110156126c05780820151818401526020810190506126a5565b5050505090500183600260200280838360005b838110156126ee5780820151818401526020810190506126d3565b5050505090500182600260200280838360005b8381101561271c578082015181840152602081019050612701565b505050509050019950505050505050505050602060405180830381600087803b15801561274857600080fd5b505af115801561275c573d6000803e3d6000fd5b505050506040513d602081101561277257600080fd5b81019080805190602001909291905050501561279d576127928484611f84565b5060019150506127a3565b60009150505b9392505050565b60006127f3600460008473ffffffffffffffffffffffffffffffffffffffff1673ffffffffffffffffffffffffffffffffffffffff16815260200190815260200160002061302f565b9050919050565b606060108054600181600116156101000203166002900480601f0160208091040260200160405190810160405280929190818152602001828054600181600116156101000203166002900480156128925780601f1061286757610100808354040283529160200191612892565b820191906000526020600020905b81548152906001019060200180831161287557829003601f168201915b5050505050905090565b3373ffffffffffffffffffffffffffffffffffffffff168273ffffffffffffffffffffffffffffffffffffffff1614156128d557600080fd5b80600560003373ffffffffffffffffffffffffffffffffffffffff1673ffffffffffffffffffffffffffffffffffffffff16815260200190815260200160002060008473ffffffffffffffffffffffffffffffffffffffff1673ffffffffffffffffffffffffffffffffffffffff16815260200190815260200160002060006101000a81548160ff0219169083151502179055508173ffffffffffffffffffffffffffffffffffffffff163373ffffffffffffffffffffffffffffffffffffffff167f17307eab39ab6107e8899845ad3d59bd9653f200f220920489ca2b5937696c3183604051808215151515815260200191505060405180910390a35050565b6129e1848484611e80565b6129ed8484848461303d565b6129f657600080fd5b50505050565b6060612a078261325e565b612a1057600080fd5b601260008381526020019081526020016000208054600181600116156101000203166002900480601f016020809104026020016040519081016040528092919081815260200182805460018160011615610100020316600290048015612ab75780601f10612a8c57610100808354040283529160200191612ab7565b820191906000526020600020905b815481529060010190602001808311612a9a57829003601f168201915b50505050509050919050565b60008060009054906101000a900473ffffffffffffffffffffffffffffffffffffffff16905090565b606060118054600181600116156101000203166002900480601f016020809104026020016040519081016040528092919081815260200182805460018160011615610100020316600290048015612b845780601f10612b5957610100808354040283529160200191612b84565b820191906000526020600020905b815481529060010190602001808311612b6757829003601f168201915b5050505050905090565b6000600560008473ffffffffffffffffffffffffffffffffffffffff1673ffffffffffffffffffffffffffffffffffffffff16815260200190815260200160002060008373ffffffffffffffffffffffffffffffffffffffff1673ffffffffffffffffffffffffffffffffffffffff16815260200190815260200160002060009054906101000a900460ff16905092915050565b6000809054906101000a900473ffffffffffffffffffffffffffffffffffffffff1673ffffffffffffffffffffffffffffffffffffffff163373ffffffffffffffffffffffffffffffffffffffff1614612cc7576040517f08c379a000000000000000000000000000000000000000000000000000000000815260040180806020018281038252602181526020018061436e6021913960400191505060405180910390fd5b80600073ffffffffffffffffffffffffffffffffffffffff168173ffffffffffffffffffffffffffffffffffffffff161415612d6b576040517f08c379a00000000000000000000000000000000000000000000000000000000081526004018080602001828103825260158152602001807f41646472657373206d7573742062652076616c6964000000000000000000000081525060200191505060405180910390fd5b60008060009054906101000a900473ffffffffffffffffffffffffffffffffffffffff169050826000806101000a81548173ffffffffffffffffffffffffffffffffffffffff021916908373ffffffffffffffffffffffffffffffffffffffff1602179055507f8be0079c531659141344cd1fd0a4f28419497f9722a3daafe3b4186f6b6457e08184604051808373ffffffffffffffffffffffffffffffffffffffff1673ffffffffffffffffffffffffffffffffffffffff1681526020018273ffffffffffffffffffffffffffffffffffffffff1673ffffffffffffffffffffffffffffffffffffffff1681526020019250505060405180910390a1505050565b600080612e79836120c6565b90508073ffffffffffffffffffffffffffffffffffffffff168473ffffffffffffffffffffffffffffffffffffffff161480612ee857508373ffffffffffffffffffffffffffffffffffffffff16612ed08461145d565b73ffffffffffffffffffffffffffffffffffffffff16145b80612ef95750612ef88185612b8e565b5b91505092915050565b612f0d8383836132d0565b612f17838261357b565b612f218282613719565b505050565b612f3082826137e0565b612f3a8282613719565b612f43816139f7565b5050565b612f508161325e565b612f5957600080fd5b61300560118054600181600116156101000203166002900480601f016020809104026020016040519081016040528092919081815260200182805460018160011615610100020316600290048015612ff25780601f10612fc757610100808354040283529160200191612ff2565b820191906000526020600020905b815481529060010190602001808311612fd557829003601f168201915b505050505061300083613a43565b613b8f565b60126000838152602001908152602001600020908051906020019061302b929190614172565b5050565b600081600001549050919050565b600061305e8473ffffffffffffffffffffffffffffffffffffffff16613bd3565b61306b5760019050613256565b60008473ffffffffffffffffffffffffffffffffffffffff1663150b7a02338887876040518563ffffffff167c0100000000000000000000000000000000000000000000000000000000028152600401808573ffffffffffffffffffffffffffffffffffffffff1673ffffffffffffffffffffffffffffffffffffffff1681526020018473ffffffffffffffffffffffffffffffffffffffff1673ffffffffffffffffffffffffffffffffffffffff16815260200183815260200180602001828103825283818151815260200191508051906020019080838360005b83811015613162578082015181840152602081019050613147565b50505050905090810190601f16801561318f5780820380516001836020036101000a031916815260200191505b5095505050505050602060405180830381600087803b1580156131b157600080fd5b505af11580156131c5573d6000803e3d6000fd5b505050506040513d60208110156131db57600080fd5b8101908080519060200190929190505050905063150b7a027c0100000000000000000000000000000000000000000000000000000000027bffffffffffffffffffffffffffffffffffffffffffffffffffffffff1916817bffffffffffffffffffffffffffffffffffffffffffffffffffffffff1916149150505b949350505050565b6000806002600084815260200190815260200160002060009054906101000a900473ffffffffffffffffffffffffffffffffffffffff169050600073ffffffffffffffffffffffffffffffffffffffff168173ffffffffffffffffffffffffffffffffffffffff161415915050919050565b60006132db826120c6565b90508073ffffffffffffffffffffffffffffffffffffffff168473ffffffffffffffffffffffffffffffffffffffff1614613361576040517f08c379a000000000000000000000000000000000000000000000000000000000815260040180806020018281038252602c8152602001806142cd602c913960400191505060405180910390fd5b600073ffffffffffffffffffffffffffffffffffffffff168373ffffffffffffffffffffffffffffffffffffffff161415613404576040517f08c379a00000000000000000000000000000000000000000000000000000000081526004018080602001828103825260158152602001807f41646472657373206d7573742062652076616c6964000000000000000000000081525060200191505060405180910390fd5b6003600083815260200190815260200160002060006101000a81549073ffffffffffffffffffffffffffffffffffffffff0219169055613481600460008573ffffffffffffffffffffffffffffffffffffffff1673ffffffffffffffffffffffffffffffffffffffff168152602001908152602001600020613be6565b6134c8600460008673ffffffffffffffffffffffffffffffffffffffff1673ffffffffffffffffffffffffffffffffffffffff168152602001908152602001600020613bfc565b826002600084815260200190815260200160002060006101000a81548173ffffffffffffffffffffffffffffffffffffffff021916908373ffffffffffffffffffffffffffffffffffffffff160217905550818373ffffffffffffffffffffffffffffffffffffffff168573ffffffffffffffffffffffffffffffffffffffff167fddf252ad1be2c89b69c2b068fc378daa952ba7f163c4a11628f55a4df523b3ef60405160405180910390a450505050565b60006135d36001600660008673ffffffffffffffffffffffffffffffffffffffff1673ffffffffffffffffffffffffffffffffffffffff16815260200190815260200160002080549050613c1f90919063ffffffff16565b90506000600760008481526020019081526020016000205490508181146136c0576000600660008673ffffffffffffffffffffffffffffffffffffffff1673ffffffffffffffffffffffffffffffffffffffff168152602001908152602001600020838154811061364057fe5b9060005260206000200154905080600660008773ffffffffffffffffffffffffffffffffffffffff1673ffffffffffffffffffffffffffffffffffffffff168152602001908152602001600020838154811061369857fe5b9060005260206000200181905550816007600083815260200190815260200160002081905550505b600660008573ffffffffffffffffffffffffffffffffffffffff1673ffffffffffffffffffffffffffffffffffffffff16815260200190815260200160002080548091906001900361371291906141f2565b5050505050565b600660008373ffffffffffffffffffffffffffffffffffffffff1673ffffffffffffffffffffffffffffffffffffffff168152602001908152602001600020805490506007600083815260200190815260200160002081905550600660008373ffffffffffffffffffffffffffffffffffffffff1673ffffffffffffffffffffffffffffffffffffffff1681526020019081526020016000208190806001815401808255809150509060018203906000526020600020016000909192909190915055505050565b6137e98161325e565b1561385c576040517f08c379a00000000000000000000000000000000000000000000000000000000081526004018080602001828103825260178152602001807f546f6b656e4964206d757374206e6f742065786973747300000000000000000081525060200191505060405180910390fd5b600073ffffffffffffffffffffffffffffffffffffffff168273ffffffffffffffffffffffffffffffffffffffff1614156138ff576040517f08c379a00000000000000000000000000000000000000000000000000000000081526004018080602001828103825260158152602001807f41646472657373206d7573742062652076616c6964000000000000000000000081525060200191505060405180910390fd5b816002600083815260200190815260200160002060006101000a81548173ffffffffffffffffffffffffffffffffffffffff021916908373ffffffffffffffffffffffffffffffffffffffff160217905550613998600460008473ffffffffffffffffffffffffffffffffffffffff1673ffffffffffffffffffffffffffffffffffffffff168152602001908152602001600020613be6565b808273ffffffffffffffffffffffffffffffffffffffff163373ffffffffffffffffffffffffffffffffffffffff167fddf252ad1be2c89b69c2b068fc378daa952ba7f163c4a11628f55a4df523b3ef60405160405180910390a45050565b6008805490506009600083815260200190815260200160002081905550600881908060018154018082558091505090600182039060005260206000200160009091929091909150555050565b60606000821415613a8b576040518060400160405280600181526020017f30000000000000000000000000000000000000000000000000000000000000008152509050613b8a565b600082905060005b60008214613ab5578080600101915050600a8281613aad57fe5b049150613a93565b6060816040519080825280601f01601f191660200182016040528015613aea5781602001600182028038833980820191505090505b50905060006001830390505b60008614613b8257600a8681613b0857fe5b066030017f01000000000000000000000000000000000000000000000000000000000000000282828060019003935081518110613b4157fe5b60200101907effffffffffffffffffffffffffffffffffffffffffffffffffffffffffffff1916908160001a905350600a8681613b7a57fe5b049550613af6565b819450505050505b919050565b6060613bcb8383604051806020016040528060008152506040518060200160405280600081525060405180602001604052806000815250613c3f565b905092915050565b600080823b905060008111915050919050565b6001816000016000828254019250508190555050565b613c1460018260000154613c1f90919063ffffffff16565b816000018190555050565b600082821115613c2e57600080fd5b600082840390508091505092915050565b6060808690506060869050606086905060608690506060869050606081518351855187518951010101016040519080825280601f01601f191660200182016040528015613c9b5781602001600182028038833980820191505090505b509050606081905060008090506000809050600090505b8851811015613d5f57888181518110613cc757fe5b60200101517f010000000000000000000000000000000000000000000000000000000000000090047f010000000000000000000000000000000000000000000000000000000000000002838380600101945081518110613d2357fe5b60200101907effffffffffffffffffffffffffffffffffffffffffffffffffffffffffffff1916908160001a9053508080600101915050613cb2565b600090505b8751811015613e1157878181518110613d7957fe5b60200101517f010000000000000000000000000000000000000000000000000000000000000090047f010000000000000000000000000000000000000000000000000000000000000002838380600101945081518110613dd557fe5b60200101907effffffffffffffffffffffffffffffffffffffffffffffffffffffffffffff1916908160001a9053508080600101915050613d64565b600090505b8651811015613ec357868181518110613e2b57fe5b60200101517f010000000000000000000000000000000000000000000000000000000000000090047f010000000000000000000000000000000000000000000000000000000000000002838380600101945081518110613e8757fe5b60200101907effffffffffffffffffffffffffffffffffffffffffffffffffffffffffffff1916908160001a9053508080600101915050613e16565b600090505b8551811015613f7557858181518110613edd57fe5b60200101517f010000000000000000000000000000000000000000000000000000000000000090047f010000000000000000000000000000000000000000000000000000000000000002838380600101945081518110613f3957fe5b60200101907effffffffffffffffffffffffffffffffffffffffffffffffffffffffffffff1916908160001a9053508080600101915050613ec8565b600090505b845181101561402757848181518110613f8f57fe5b60200101517f010000000000000000000000000000000000000000000000000000000000000090047f010000000000000000000000000000000000000000000000000000000000000002838380600101945081518110613feb57fe5b60200101907effffffffffffffffffffffffffffffffffffffffffffffffffffffffffffff1916908160001a9053508080600101915050613f7a565b82995050505050505050505095945050505050565b604051806102c0016040528061405061421e565b815260200161405d61421e565b815260200161406a614240565b815260200161407761421e565b815260200161408461421e565b815260200161409161421e565b815260200161409e61421e565b81526020016140ab61421e565b81526020016140b861421e565b8152602001600073ffffffffffffffffffffffffffffffffffffffff168152602001600081525090565b8260028101928215614111579160200282015b828111156141105782518255916020019190600101906140f5565b5b50905061411e919061426d565b5090565b82600280028101928215614161579160200282015b82811115614160578251829060026141509291906140e2565b5091602001919060020190614137565b5b50905061416e9190614292565b5090565b828054600181600116156101000203166002900490600052602060002090601f016020900481019282601f106141b357805160ff19168380011785556141e1565b828001600101855582156141e1579182015b828111156141e05782518255916020019190600101906141c5565b5b5090506141ee919061426d565b5090565b81548183558181111561421957818360005260206000209182019101614218919061426d565b5b505050565b6040518060400160405280600290602082028038833980820191505090505090565b60405180608001604052806002905b61425761421e565b81526020019060019003908161424f5790505090565b61428f91905b8082111561428b576000816000905550600101614273565b5090565b90565b6142bb91905b808211156142b757600081816142ae91906142be565b50600201614298565b5090565b90565b50600081556001016000905556fe41646472657373206d75737420626520746865206f776e6572206f662074686520676976656e20746f6b656e41646472657373206d757374206e6f7420626520746865206f776e6572206f662074686520746f6b656e43616c6c6572206d75737420626520746865206f776e6572206f662074686520636f6e7472616374206f72206973417070726f766564466f72416c6c2829206d75737420626520747275654f6e6c79206f776e65722063616e20706572666f726d2074686520616374696f6ea165627a7a723058204c8578398ff66901b20afe1f3d0418bb63e7f6259c82802bcb3251f495e42d5c002968747470733a2f2f73332d75732d776573742d322e616d617a6f6e6177732e636f6d2f756461636974792d626c6f636b636861696e2f63617073746f6e652f",
  "source": "pragma solidity >=0.4.21 <0.6.0;\n\nimport \"./ERC721Mintable.sol\";\nimport \"./Verifier.sol\";\n\n// define a contract call to the zokrates generated solidity contract <Verifier> or <renamedVerifier>\ncontract SquareVerifier is Verifier { }\n\n\n\n// define another contract named SolnSquareVerifier that inherits from your ERC721Mintable class\ncontract SolnSquareVerifier is ERC721Mintable {\n    SquareVerifier public verifier;\n\n    constructor(address verifierAddress) ERC721Mintable() public{\n        verifier = SquareVerifier(verifierAddress);\n    }\n\n    // define a solutions struct that can hold an index & an address\n    struct Solution {\n        uint[2]  a;\n        uint[2]  a_p;\n        uint[2][2]  b;\n        uint[2]  b_p;\n        uint[2]  c;\n        uint[2]  c_p;\n        uint[2]  h;\n        uint[2]  k;\n        uint[2]  input;\n        address to;\n        uint256 tokenId;\n    }\n\n\n    // define an array of the above struct\n    mapping(bytes32 => Solution) solutions;\n\n\n    // define a mapping to store unique solutions submitted\n    mapping(bytes32 => bool) uniqueSolutions;\n\n\n    // Create an event to emit when a solution is added\n    event SolutionAdded(address to, uint256 tokenId);\n\n\n\n    // Create a function to add the solutions to the array and emit the event\n    function addSolution(\n        uint[2] memory a, \n        uint[2] memory a_p, \n        uint[2][2] memory b, \n        uint[2] memory b_p, \n        uint[2] memory c, \n        uint[2] memory c_p,\n        uint[2] memory h, \n        uint[2] memory k, \n        uint[2] memory input, \n        address to, \n        uint256 tokenId\n    ) public returns (bool) {\n        // emit SolutionAdded(to, tokenId);\n        Solution memory solution = Solution({\n            a: a, \n            a_p: a_p, \n            b: b, \n            b_p: b_p, \n            c: c, \n            c_p: c_p,\n            h: h, \n            k: k, \n            input: input, \n            to: to, \n            tokenId: tokenId\n        });\n\n        bytes32 key = keccak256(abi.encodePacked(\n            a, \n            a_p, \n            b, \n            b_p, \n            c, \n            c_p,\n            h, \n            k, \n            input        \n        ));\n\n        solutions[key] = solution;\n        uniqueSolutions[key] = true;\n        emit SolutionAdded(to, tokenId);\n\n        return true;\n    }\n\n    // Create a function to mint new NFT only after the solution has been verified\n    //  - make sure the solution is unique (has not been used before)\n    //  - make sure you handle metadata as well as tokenSuplly\n    function mintToken(\n        bytes32 key,\n        address to, \n        uint256 tokenId\n    ) public returns (bool) {\n\n        require(!uniqueSolutions[key], \"Solution must be unique\");\n\n        Solution memory solution = solutions[key];\n\n        if(verifier.verifyTx(\n            solution.a, \n            solution.a_p, \n            solution.b, \n            solution.b_p, \n            solution.c, \n            solution.c_p,\n            solution.h, \n            solution.k, \n            solution.input\n        )) {\n            super.mint(to, tokenId);\n            return true;\n        } else {\n            return false;\n        }\n    }\n\n    // Get key of solution\n    function getKey(\n        uint[2] memory a, \n        uint[2] memory a_p, \n        uint[2][2] memory b, \n        uint[2] memory b_p, \n        uint[2] memory c, \n        uint[2] memory c_p,\n        uint[2] memory h, \n        uint[2] memory k, \n        uint[2] memory input\n    ) pure public returns (bytes32) {\n\n        return keccak256(abi.encodePacked(\n            a, \n            a_p, \n            b, \n            b_p, \n            c, \n            c_p,\n            h, \n            k, \n            input            \n        ));\n    }\n\n    // Check if solution is added or not\n    function isSolution(bytes32 key) view public returns (bool) {\n        return uniqueSolutions[key];\n    }\n}\n\n\n\n\n\n\n\n\n\n\n\n\n\n\n\n\n\n\n\n\n\n\n\n\n\n\n",
  "sourcePath": "/Users/strengthandwill/workspace/blockchain-nanodegree/capstone/Blockchain-Capstone/eth-contracts/contracts/SolnSquareVerifier.sol",
  "compiler": {
    "name": "solc",
    "version": "0.5.6+commit.b259423e.Emscripten.clang"
  },
  "schemaVersion": "3.0.1",
  "updatedAt": "2021-10-15T05:52:32.106Z",
  "devdoc": {
    "methods": {
      "isApprovedForAll(address,address)": {
        "details": "Tells whether an operator is approved by a given owner",
        "params": {
          "operator": "operator address which you want to query the approval of",
          "owner": "owner address which you want to query the approval of"
        },
        "return": "bool whether the given operator is approved by the given owner"
      },
      "setApprovalForAll(address,bool)": {
        "details": "Sets or unsets the approval of a given operator An operator is allowed to transfer all tokens of the sender on their behalf",
        "params": {
          "approved": "representing the status of the approval to be set",
          "to": "operator address to set the approval"
        }
      },
      "supportsInterface(bytes4)": {
        "details": "implement supportsInterface(bytes4) using a lookup table"
      },
      "tokenByIndex(uint256)": {
        "details": "Gets the token ID at a given index of all the tokens in this contract Reverts if the index is greater or equal to the total number of tokens",
        "params": {
          "index": "uint256 representing the index to be accessed of the tokens list"
        },
        "return": "uint256 token ID at the given index of the tokens list"
      },
      "tokenOfOwnerByIndex(address,uint256)": {
        "details": "Gets the token ID at a given index of the tokens list of the requested owner",
        "params": {
          "index": "uint256 representing the index to be accessed of the requested tokens list",
          "owner": "address owning the tokens list to be accessed"
        },
        "return": "uint256 token ID at the given index of the tokens list owned by the requested address"
      },
      "totalSupply()": {
        "details": "Gets the total amount of tokens stored by the contract",
        "return": "uint256 representing the total amount of tokens"
      }
    }
  },
  "userdoc": {
    "methods": {}
  }
}