{
  "contractName": "SquareVerifier",
  "abi": [
    {
      "constant": false,
      "inputs": [
        {
          "name": "a",
          "type": "uint256[2]"
        },
        {
          "name": "a_p",
          "type": "uint256[2]"
        },
        {
          "name": "b",
          "type": "uint256[2][2]"
        },
        {
          "name": "b_p",
          "type": "uint256[2]"
        },
        {
          "name": "c",
          "type": "uint256[2]"
        },
        {
          "name": "c_p",
          "type": "uint256[2]"
        },
        {
          "name": "h",
          "type": "uint256[2]"
        },
        {
          "name": "k",
          "type": "uint256[2]"
        },
        {
          "name": "input",
          "type": "uint256[2]"
        }
      ],
      "name": "verifyTx",
      "outputs": [
        {
          "name": "r",
          "type": "bool"
        }
      ],
      "payable": false,
      "stateMutability": "nonpayable",
      "type": "function"
    },
    {
      "anonymous": false,
      "inputs": [
        {
          "indexed": false,
          "name": "s",
          "type": "string"
        }
      ],
      "name": "Verified",
      "type": "event"
    }
  ],
  "bytecode": "0x608060405234801561001057600080fd5b50611854806100206000396000f3fe608060405234801561001057600080fd5b5060043610610048576000357c010000000000000000000000000000000000000000000000000000000090048063fe01ff621461004d575b600080fd5b6102f1600480360361028081101561006457600080fd5b8101908080604001906002806020026040519081016040528092919082600260200280828437600081840152601f19601f820116905080830192505050505050919291929080604001906002806020026040519081016040528092919082600260200280828437600081840152601f19601f82011690508083019250505050505091929192908060800190600280602002604051908101604052809291906000905b8282101561015a578382604002016002806020026040519081016040528092919082600260200280828437600081840152601f19601f82011690508083019250505050505081526020019060010190610106565b50505050919291929080604001906002806020026040519081016040528092919082600260200280828437600081840152601f19601f820116905080830192505050505050919291929080604001906002806020026040519081016040528092919082600260200280828437600081840152601f19601f820116905080830192505050505050919291929080604001906002806020026040519081016040528092919082600260200280828437600081840152601f19601f820116905080830192505050505050919291929080604001906002806020026040519081016040528092919082600260200280828437600081840152601f19601f820116905080830192505050505050919291929080604001906002806020026040519081016040528092919082600260200280828437600081840152601f19601f820116905080830192505050505050919291929080604001906002806020026040519081016040528092919082600260200280828437600081840152601f19601f820116905080830192505050505050919291929050505061030b565b604051808215151515815260200191505060405180910390f35b600061031561161a565b60405180604001604052808c60006002811061032d57fe5b602002015181526020018c60016002811061034457fe5b6020020151815250816000018190525060405180604001604052808b60006002811061036c57fe5b602002015181526020018b60016002811061038357fe5b60200201518152508160200181905250604051806040016040528060405180604001604052808c6000600281106103b657fe5b60200201516000600281106103c757fe5b602002015181526020018c6000600281106103de57fe5b60200201516001600281106103ef57fe5b6020020151815250815260200160405180604001604052808c60016002811061041457fe5b602002015160006002811061042557fe5b602002015181526020018c60016002811061043c57fe5b602002015160016002811061044d57fe5b6020020151815250815250816040018190525060405180604001604052808960006002811061047857fe5b602002015181526020018960016002811061048f57fe5b602002015181525081606001819052506040518060400160405280886000600281106104b757fe5b60200201518152602001886001600281106104ce57fe5b602002015181525081608001819052506040518060400160405280876000600281106104f657fe5b602002015181526020018760016002811061050d57fe5b60200201518152508160a0018190525060405180604001604052808660006002811061053557fe5b602002015181526020018660016002811061054c57fe5b60200201518152508160e0018190525060405180604001604052808560006002811061057457fe5b602002015181526020018560016002811061058b57fe5b60200201518152508160c00181905250606060026040519080825280602002602001820160405280156105cd5781602001602082028038833980820191505090505b50905060008090505b6002811015610615578481600281106105eb57fe5b60200201518282815181106105fc57fe5b60200260200101818152505080806001019150506105d6565b5060006106228284610692565b141561067e577f3f3cfdb26fb5f9f1786ab4f1a1f9cd4c0b5e726cbdfc26e495261731aad44e396040518080602001828103825260228152602001806118076022913960400191505060405180910390a1600192505050610685565b6000925050505b9998505050505050505050565b600061069c61168f565b6106a46108ba565b90508060e00151516001855101146106bb57600080fd5b6106c36116fe565b6040518060400160405280600081526020016000815250905060008090505b855181101561073a5761072b826107268560e00151600185018151811061070557fe5b602002602001015189858151811061071957fe5b6020026020010151610eee565b610f82565b915080806001019150506106e2565b5061075d818360e0015160008151811061075057fe5b6020026020010151610f82565b9050610786846000015183600001516107798760200151611035565b6107816110cf565b611199565b610795576001925050506108b4565b6107bc826020015185604001516107af8760600151611035565b6107b76110cf565b611199565b6107cb576002925050506108b4565b6107f2846080015183604001516107e58760a00151611035565b6107ed6110cf565b611199565b610801576003925050506108b4565b61084d8460c00151836060015161083161082c856108278a600001518b60800151610f82565b610f82565b611035565b8560a001516108438760800151611035565b8960400151611295565b61085c576004925050506108b4565b61089e61086d828660000151610f82565b856040015161087f8760e00151611035565b8560c001516108918960800151611035565b6108996110cf565b611295565b6108ad576005925050506108b4565b6000925050505b92915050565b6108c261168f565b604051806040016040528060405180604001604052807f2b8fc9cef31e6d21e60242b5829be1698b42cfcb03b38bd198e4929017434bb081526020017f2698e7414553e471455dadc865f67f870eec23b065d2f8daea74806934b9f247815250815260200160405180604001604052807f10d1be34e256c700dcec6bea799b01fff5a63a983fc6e2375bc6c4ef422d255c81526020017f2c2a204758fe8763084f7d32093a971691da70b339d4bd87689738349bbe9a27815250815250816000018190525060405180604001604052807f047135075a45790714d1ceaf0747ab780d231f7170b9cc377ec887fac13b828281526020017f233c55a6d08715dfa8cc402cb8681827ce011ac116baf97e3144868534c962cd8152508160200181905250604051806040016040528060405180604001604052807f1dea937ba62db4f8a30d27234d77ff273b76317baaa8fb6de8b62f4fbbba338781526020017f14804efbbd3166fabe96812da62e0fe9d6208e35d1bab1d71060a09077a3e28b815250815260200160405180604001604052807f088ee2bf818ae8221a58ec34f0b00f9ccbcd051a27cc5ec89c1e19c538a90f2d81526020017f1c377fb85b2fbdc7411fff25e7b323363214505307bfeb2b9c9aecaabbd675dd8152508152508160400181905250604051806040016040528060405180604001604052807f067183a992757c6e5504f684dae823218564128e40c1c8617411ae2bdc935bce81526020017f117141dfeea0a4105b87bd3b4720a607c9d55354b7c1b6eca072da83e9655b79815250815260200160405180604001604052807f15d865412ca720d6374674a5d3fd1d12f1aa5bd0583bca21a794386f4d58e81b81526020017f0cd132f6e26181d51f139167761bf0c631f5c637ca81ca983ba31397154bc855815250815250816060018190525060405180604001604052807f239c1edfd0f605dd6cbb23c65ba0d6a95fd24b8d6d8398536f53bf588f5d110b81526020017f2c238429d8af34ecc4c85488718c33df88e8654d06d9bde196caea5a786f54ef8152508160800181905250604051806040016040528060405180604001604052807f23f01f538d953908a2efd540bf4377622f97020cfb36c19fc2bfc49ced7daa5881526020017f29c033160e4e738c4caf1f51ac78731d5b066e7f7515b57c2b2125670d131c14815250815260200160405180604001604052807ef2f969e6a7ef173c797ea8fa598c5d588a236ce0e259cf9a9082117335af5881526020017f25ada13deab9469a5bb8ac8151d2d6a8eaffad378e69c79648acba3c6663b8698152508152508160a00181905250604051806040016040528060405180604001604052807f1dabbada4dd08238664a113a637aeddb0c9be519a842a725e394d2f59583787381526020017f06bf07e7d9c805e10ba3e52600fc9fe4f99d395ea5461f04a2a6d33648974dbd815250815260200160405180604001604052807f139456f4334ad9d9813da6772c845d97ebd550c6f6f86c3ff6e4c174a6a7a08081526020017f142a3e443cc165f1b04fa22536dd15797b20bb0d96782bc69a18853519ef9a008152508152508160c001819052506003604051908082528060200260200182016040528015610d8f57816020015b610d7c611718565b815260200190600190039081610d745790505b508160e0018190525060405180604001604052807f23e4358d913dce7d5d3097fe5b67e4c45a77bf7cd8750aff02ab5c627d401d9481526020017f13eaffb5e35a5e0ba5cc0e092107980a131b8974fe7ba0914f685688d858ac578152508160e00151600081518110610dfe57fe5b602002602001018190525060405180604001604052807f15c6bebf7ff522fc75b98d2927ecc17c1fcc972b632aefdbcf65d6ad4a8e91a381526020017f01eda1f7dde28072ab63ead8025db2c137a5f97c16c7df86d32886b69bba5c998152508160e00151600181518110610e6f57fe5b602002602001018190525060405180604001604052807f11587bc44817094721fe304a30c93d21a99e5f1a7e09abeecc97d01aecb1011581526020017f21e922705291054862a4e12dbfeb3b9f6c8689e8d7f549d27af14175ee74c2508152508160e00151600281518110610ee057fe5b602002602001018190525090565b610ef66116fe565b610efe611732565b836000015181600060038110610f1057fe5b602002018181525050836020015181600160038110610f2b57fe5b6020020181815250508281600260038110610f4257fe5b6020020181815250506000606083608084600060076107d05a03f190508060008114610f6d57610f6f565bfe5b5080610f7a57600080fd5b505092915050565b610f8a6116fe565b610f92611754565b836000015181600060048110610fa457fe5b602002018181525050836020015181600160048110610fbf57fe5b602002018181525050826000015181600260048110610fda57fe5b602002018181525050826020015181600360048110610ff557fe5b602002018181525050600060608360c084600060066107d05a03f19050806000811461102057611022565bfe5b508061102d57600080fd5b505092915050565b61103d6116fe565b60007f30644e72e131a029b85045b68181585d97816a916871ca8d3c208c16d87cfd4790506000836000015114801561107a575060008360200151145b1561109e5760405180604001604052806000815260200160008152509150506110ca565b604051806040016040528084600001518152602001828560200151816110c057fe5b0683038152509150505b919050565b6110d7611776565b604051806040016040528060405180604001604052807f198e9393920d483a7260bfb731fb5d25f1aa493335a9e71297e485b7aef312c281526020017f1800deef121f1e76426a00665e5c4479674322d4f75edadd46debd5cd992f6ed815250815260200160405180604001604052807f090689d0585ff075ec9e99ad690c3395bc4b313370b38ef355acdadcd122975b81526020017f12c85ea5db8c6deb4aab71808dcb408fe3d1e7690c43d37b4ce6cc0166fa7daa815250815250905090565b6000606060026040519080825280602002602001820160405280156111d857816020015b6111c5611718565b8152602001906001900390816111bd5790505b5090506060600260405190808252806020026020018201604052801561121857816020015b61120561179c565b8152602001906001900390816111fd5790505b509050868260008151811061122957fe5b6020026020010181905250848260018151811061124257fe5b6020026020010181905250858160008151811061125b57fe5b6020026020010181905250838160018151811061127457fe5b602002602001018190525061128982826113c5565b92505050949350505050565b6000606060036040519080825280602002602001820160405280156112d457816020015b6112c1611718565b8152602001906001900390816112b95790505b5090506060600360405190808252806020026020018201604052801561131457816020015b61130161179c565b8152602001906001900390816112f95790505b509050888260008151811061132557fe5b6020026020010181905250868260018151811061133e57fe5b6020026020010181905250848260028151811061135757fe5b6020026020010181905250878160008151811061137057fe5b6020026020010181905250858160018151811061138957fe5b602002602001018190525083816002815181106113a257fe5b60200260200101819052506113b782826113c5565b925050509695505050505050565b600081518351146113d557600080fd5b60008351905060006006820290506060816040519080825280602002602001820160405280156114145781602001602082028038833980820191505090505b50905060008090505b838110156115ba5786818151811061143157fe5b60200260200101516000015182600060068402018151811061144f57fe5b60200260200101818152505086818151811061146757fe5b60200260200101516020015182600160068402018151811061148557fe5b60200260200101818152505085818151811061149d57fe5b6020026020010151600001516000600281106114b557fe5b60200201518260026006840201815181106114cc57fe5b6020026020010181815250508581815181106114e457fe5b6020026020010151600001516001600281106114fc57fe5b602002015182600360068402018151811061151357fe5b60200260200101818152505085818151811061152b57fe5b60200260200101516020015160006002811061154357fe5b602002015182600460068402018151811061155a57fe5b60200260200101818152505085818151811061157257fe5b60200260200101516020015160016002811061158a57fe5b60200201518260056006840201815181106115a157fe5b602002602001018181525050808060010191505061141d565b506115c36117c2565b60006020826020860260208601600060086107d05a03f1905080600081146115ea576115ec565bfe5b50806115f757600080fd5b60008260006001811061160657fe5b602002015114159550505050505092915050565b60405180610240016040528061162e611718565b815260200161163b611718565b815260200161164861179c565b8152602001611655611718565b8152602001611662611718565b815260200161166f611718565b815260200161167c611718565b8152602001611689611718565b81525090565b6040518061032001604052806116a361179c565b81526020016116b0611718565b81526020016116bd61179c565b81526020016116ca61179c565b81526020016116d7611718565b81526020016116e461179c565b81526020016116f161179c565b8152602001606081525090565b604051806040016040528060008152602001600081525090565b604051806040016040528060008152602001600081525090565b6040518060600160405280600390602082028038833980820191505090505090565b6040518060800160405280600490602082028038833980820191505090505090565b60405180608001604052806117896117e4565b81526020016117966117e4565b81525090565b60405180608001604052806117af6117e4565b81526020016117bc6117e4565b81525090565b6040518060200160405280600190602082028038833980820191505090505090565b604051806040016040528060029060208202803883398082019150509050509056fe5472616e73616374696f6e207375636365737366756c6c792076657269666965642ea165627a7a72305820b3655a2ff1d04a11876c2dbf35af3a83bba6d5b43ea5fe951832999febfd15d70029",
  "source": "pragma solidity >=0.4.21 <0.6.0;\n\nimport \"./ERC721Mintable.sol\";\nimport \"./Verifier.sol\";\n\n// define a contract call to the zokrates generated solidity contract <Verifier> or <renamedVerifier>\ncontract SquareVerifier is Verifier { }\n\n\n\n// define another contract named SolnSquareVerifier that inherits from your ERC721Mintable class\ncontract SolnSquareVerifier is ERC721Mintable {\n    SquareVerifier public verifier;\n\n    constructor(address verifierAddress) ERC721Mintable() public{\n        verifier = SquareVerifier(verifierAddress);\n    }\n\n    // define a solutions struct that can hold an index & an address\n    struct Solution {\n        uint[2]  a;\n        uint[2]  a_p;\n        uint[2][2]  b;\n        uint[2]  b_p;\n        uint[2]  c;\n        uint[2]  c_p;\n        uint[2]  h;\n        uint[2]  k;\n        uint[2]  input;\n        address to;\n        uint256 tokenId;\n    }\n\n\n    // define an array of the above struct\n    mapping(bytes32 => Solution) solutions;\n\n\n    // define a mapping to store unique solutions submitted\n    mapping(bytes32 => bool) uniqueSolutions;\n\n\n    // Create an event to emit when a solution is added\n    event SolutionAdded(address to, uint256 tokenId);\n\n\n\n    // Create a function to add the solutions to the array and emit the event\n    function addSolution(\n        uint[2] memory a, \n        uint[2] memory a_p, \n        uint[2][2] memory b, \n        uint[2] memory b_p, \n        uint[2] memory c, \n        uint[2] memory c_p,\n        uint[2] memory h, \n        uint[2] memory k, \n        uint[2] memory input, \n        address to, \n        uint256 tokenId\n    ) public returns (bool) {\n        // emit SolutionAdded(to, tokenId);\n        Solution memory solution = Solution({\n            a: a, \n            a_p: a_p, \n            b: b, \n            b_p: b_p, \n            c: c, \n            c_p: c_p,\n            h: h, \n            k: k, \n            input: input, \n            to: to, \n            tokenId: tokenId\n        });\n\n        bytes32 key = keccak256(abi.encodePacked(\n            a, \n            a_p, \n            b, \n            b_p, \n            c, \n            c_p,\n            h, \n            k, \n            input        \n        ));\n\n        solutions[key] = solution;\n        uniqueSolutions[key] = true;\n        emit SolutionAdded(to, tokenId);\n\n        return true;\n    }\n\n    // Create a function to mint new NFT only after the solution has been verified\n    //  - make sure the solution is unique (has not been used before)\n    //  - make sure you handle metadata as well as tokenSuplly\n    function mintToken(\n        bytes32 key,\n        address to, \n        uint256 tokenId\n    ) public returns (bool) {\n\n        require(!uniqueSolutions[key], \"Solution must be unique\");\n\n        Solution memory solution = solutions[key];\n\n        if(verifier.verifyTx(\n            solution.a, \n            solution.a_p, \n            solution.b, \n            solution.b_p, \n            solution.c, \n            solution.c_p,\n            solution.h, \n            solution.k, \n            solution.input\n        )) {\n            super.mint(to, tokenId);\n            return true;\n        } else {\n            return false;\n        }\n    }\n\n    // Get key of solution\n    function getKey(\n        uint[2] memory a, \n        uint[2] memory a_p, \n        uint[2][2] memory b, \n        uint[2] memory b_p, \n        uint[2] memory c, \n        uint[2] memory c_p,\n        uint[2] memory h, \n        uint[2] memory k, \n        uint[2] memory input\n    ) pure public returns (bytes32) {\n\n        return keccak256(abi.encodePacked(\n            a, \n            a_p, \n            b, \n            b_p, \n            c, \n            c_p,\n            h, \n            k, \n            input            \n        ));\n    }\n\n    // Check if solution is added or not\n    function isSolution(bytes32 key) view public returns (bool) {\n        return uniqueSolutions[key];\n    }\n}\n\n\n\n\n\n\n\n\n\n\n\n\n\n\n\n\n\n\n\n\n\n\n\n\n\n\n",
  "sourcePath": "/Users/strengthandwill/workspace/blockchain-nanodegree/capstone/Blockchain-Capstone/eth-contracts/contracts/SolnSquareVerifier.sol",
  "compiler": {
    "name": "solc",
    "version": "0.5.6+commit.b259423e.Emscripten.clang"
  },
  "schemaVersion": "3.0.1",
  "updatedAt": "2021-10-15T05:52:32.092Z",
  "devdoc": {
    "methods": {}
  },
  "userdoc": {
    "methods": {}
  }
}