{
  "contractName": "SquareVerifier",
  "abi": [
    {
      "constant": false,
      "inputs": [
        {
          "name": "a",
          "type": "uint256[2]"
        },
        {
          "name": "a_p",
          "type": "uint256[2]"
        },
        {
          "name": "b",
          "type": "uint256[2][2]"
        },
        {
          "name": "b_p",
          "type": "uint256[2]"
        },
        {
          "name": "c",
          "type": "uint256[2]"
        },
        {
          "name": "c_p",
          "type": "uint256[2]"
        },
        {
          "name": "h",
          "type": "uint256[2]"
        },
        {
          "name": "k",
          "type": "uint256[2]"
        },
        {
          "name": "input",
          "type": "uint256[2]"
        }
      ],
      "name": "verifyTx",
      "outputs": [
        {
          "name": "r",
          "type": "bool"
        }
      ],
      "payable": false,
      "stateMutability": "nonpayable",
      "type": "function",
      "signature": "0xfe01ff62"
    },
    {
      "anonymous": false,
      "inputs": [
        {
          "indexed": false,
          "name": "s",
          "type": "string"
        }
      ],
      "name": "Verified",
      "type": "event",
      "signature": "0x3f3cfdb26fb5f9f1786ab4f1a1f9cd4c0b5e726cbdfc26e495261731aad44e39"
    }
  ],
  "bytecode": "0x608060405234801561001057600080fd5b50611854806100206000396000f3fe608060405234801561001057600080fd5b5060043610610048576000357c010000000000000000000000000000000000000000000000000000000090048063fe01ff621461004d575b600080fd5b6102f1600480360361028081101561006457600080fd5b8101908080604001906002806020026040519081016040528092919082600260200280828437600081840152601f19601f820116905080830192505050505050919291929080604001906002806020026040519081016040528092919082600260200280828437600081840152601f19601f82011690508083019250505050505091929192908060800190600280602002604051908101604052809291906000905b8282101561015a578382604002016002806020026040519081016040528092919082600260200280828437600081840152601f19601f82011690508083019250505050505081526020019060010190610106565b50505050919291929080604001906002806020026040519081016040528092919082600260200280828437600081840152601f19601f820116905080830192505050505050919291929080604001906002806020026040519081016040528092919082600260200280828437600081840152601f19601f820116905080830192505050505050919291929080604001906002806020026040519081016040528092919082600260200280828437600081840152601f19601f820116905080830192505050505050919291929080604001906002806020026040519081016040528092919082600260200280828437600081840152601f19601f820116905080830192505050505050919291929080604001906002806020026040519081016040528092919082600260200280828437600081840152601f19601f820116905080830192505050505050919291929080604001906002806020026040519081016040528092919082600260200280828437600081840152601f19601f820116905080830192505050505050919291929050505061030b565b604051808215151515815260200191505060405180910390f35b600061031561161a565b60405180604001604052808c60006002811061032d57fe5b602002015181526020018c60016002811061034457fe5b6020020151815250816000018190525060405180604001604052808b60006002811061036c57fe5b602002015181526020018b60016002811061038357fe5b60200201518152508160200181905250604051806040016040528060405180604001604052808c6000600281106103b657fe5b60200201516000600281106103c757fe5b602002015181526020018c6000600281106103de57fe5b60200201516001600281106103ef57fe5b6020020151815250815260200160405180604001604052808c60016002811061041457fe5b602002015160006002811061042557fe5b602002015181526020018c60016002811061043c57fe5b602002015160016002811061044d57fe5b6020020151815250815250816040018190525060405180604001604052808960006002811061047857fe5b602002015181526020018960016002811061048f57fe5b602002015181525081606001819052506040518060400160405280886000600281106104b757fe5b60200201518152602001886001600281106104ce57fe5b602002015181525081608001819052506040518060400160405280876000600281106104f657fe5b602002015181526020018760016002811061050d57fe5b60200201518152508160a0018190525060405180604001604052808660006002811061053557fe5b602002015181526020018660016002811061054c57fe5b60200201518152508160e0018190525060405180604001604052808560006002811061057457fe5b602002015181526020018560016002811061058b57fe5b60200201518152508160c00181905250606060026040519080825280602002602001820160405280156105cd5781602001602082028038833980820191505090505b50905060008090505b6002811015610615578481600281106105eb57fe5b60200201518282815181106105fc57fe5b60200260200101818152505080806001019150506105d6565b5060006106228284610692565b141561067e577f3f3cfdb26fb5f9f1786ab4f1a1f9cd4c0b5e726cbdfc26e495261731aad44e396040518080602001828103825260228152602001806118076022913960400191505060405180910390a1600192505050610685565b6000925050505b9998505050505050505050565b600061069c61168f565b6106a46108ba565b90508060e00151516001855101146106bb57600080fd5b6106c36116fe565b6040518060400160405280600081526020016000815250905060008090505b855181101561073a5761072b826107268560e00151600185018151811061070557fe5b602002602001015189858151811061071957fe5b6020026020010151610eee565b610f82565b915080806001019150506106e2565b5061075d818360e0015160008151811061075057fe5b6020026020010151610f82565b9050610786846000015183600001516107798760200151611035565b6107816110cf565b611199565b610795576001925050506108b4565b6107bc826020015185604001516107af8760600151611035565b6107b76110cf565b611199565b6107cb576002925050506108b4565b6107f2846080015183604001516107e58760a00151611035565b6107ed6110cf565b611199565b610801576003925050506108b4565b61084d8460c00151836060015161083161082c856108278a600001518b60800151610f82565b610f82565b611035565b8560a001516108438760800151611035565b8960400151611295565b61085c576004925050506108b4565b61089e61086d828660000151610f82565b856040015161087f8760e00151611035565b8560c001516108918960800151611035565b6108996110cf565b611295565b6108ad576005925050506108b4565b6000925050505b92915050565b6108c261168f565b604051806040016040528060405180604001604052807f11bbe3784c35a4382ab12cf415b13370f1c1a4c5265f8663d51656b525b3f11481526020017f26cae68cbe9214e95d2b76b18f16ae02f27dbc9ae503d794ce45b23d043e4840815250815260200160405180604001604052807f153239ff724b90bf4c139b039050db27b42e0df69dc577e9a986b16df3558bbb81526020017f2db0925fb95b86c6bfed2fa7eb84f77144ab15eb18a9ed875752e06d492b621b815250815250816000018190525060405180604001604052807f1a4112408b2af067743291905084eaaf682888721863c8cc2b58100a1465c09881526020017f27a4e04e90bd1045e7da6ec95a823ba29eb4c29d8ee648594f2f7716d02dd65d8152508160200181905250604051806040016040528060405180604001604052807f0febbc87bec1d9101c187aa44b17ed5f4f49e2681115a731aa7c0637a4caa2e481526020017f17ac7e39954792f199a56dbbcb1dbf79bdad2e2122f663603e7f0bd1b0a94a6f815250815260200160405180604001604052807f0c114094fa6681ba99fba5cd7ed1eb0314febf9def74ec7aabf73c416073bdb081526020017f276766271503175dc35c49d93506412b07ae7295f57b6b987913c1f97481ad218152508152508160400181905250604051806040016040528060405180604001604052807f28ceaa11de0139c91a226325ec3dcc36f883b510e193c3cc1b8c3617f03f69bc81526020017f14879c0969d46a649704cc2f0dec37c49449d152360281f3ffeeeeecf379c920815250815260200160405180604001604052807f297883dac923d7810b29864385a1c59e29ddd06813f8c146da89000e0cf1a7e981526020017efb73a0fdb8c5b01cc3e71f5e9bd642b8e800324844f1243058d79ec45bb046815250815250816060018190525060405180604001604052807f1bf15f524f4a9101d81694c08a612788bc130ce0d2d6a352d936dea301edc2d081526020017f07c3475aa1586f24f688edcbd82b1141b4d8ae924d2df95f2f48fcd45ce7292f8152508160800181905250604051806040016040528060405180604001604052807f243eef66c1cfaf49ab6633023db546185f656c8434f3b319d4ce88ca2c11936281526020017f17068fcaa7012855aa40a07253f9d74b16d46a7df87687ce2d8a6b96a4f66180815250815260200160405180604001604052807f2eaba8f1bd5f3d7d3f15e45e228b323a742d02b8383c672f48abb052990afc1981526020017f2840d3e406cea6456b3ad7e6842f4c7ffb16e0f5e072025ee8a80e750ef84f738152508152508160a00181905250604051806040016040528060405180604001604052807f25ace1a9138071bffdd3af81a353399cf6e3d018e0d93d82bcb266f15b3a818f81526020017f101f9e38f159c0fec3486e921ddfcdcc21299de270569504d53646d444db33df815250815260200160405180604001604052807f21756d26dbb47aa86939b2e1cf1c7281fc2b04a848bc9e0a511697042db12be081526020017f02c1a174f9a65a1c9e54cbc5a334f73783e60b29bbc8fa926ea56014797628098152508152508160c001819052506003604051908082528060200260200182016040528015610d8f57816020015b610d7c611718565b815260200190600190039081610d745790505b508160e0018190525060405180604001604052807f0a4f49a0e912739761c53890d803e8fd9dc2fa2a6fe7b747ce985420538a452781526020017f2927f6f6a55be796a1566ff8c444f4c644e629d0fc72cb0c56a284690dbc5f558152508160e00151600081518110610dfe57fe5b602002602001018190525060405180604001604052807f210e96efdedd8884bb9ba051a206711b16e0e52d3239c06ce4c40f68e85c0ca581526020017f2effe1364f8fff95fddf8bb0f4fd7280378ff8cb655202c39aeb35f86b1170158152508160e00151600181518110610e6f57fe5b602002602001018190525060405180604001604052807f20c5140f25d6c6816f29584b56760c5acbe6fd114f5e4c09ce978ffb6f399e2f81526020017f15a58d1084f7005de7c7176913571053b69dd9682e1f284d9b0cecd1bc78f69d8152508160e00151600281518110610ee057fe5b602002602001018190525090565b610ef66116fe565b610efe611732565b836000015181600060038110610f1057fe5b602002018181525050836020015181600160038110610f2b57fe5b6020020181815250508281600260038110610f4257fe5b6020020181815250506000606083608084600060076107d05a03f190508060008114610f6d57610f6f565bfe5b5080610f7a57600080fd5b505092915050565b610f8a6116fe565b610f92611754565b836000015181600060048110610fa457fe5b602002018181525050836020015181600160048110610fbf57fe5b602002018181525050826000015181600260048110610fda57fe5b602002018181525050826020015181600360048110610ff557fe5b602002018181525050600060608360c084600060066107d05a03f19050806000811461102057611022565bfe5b508061102d57600080fd5b505092915050565b61103d6116fe565b60007f30644e72e131a029b85045b68181585d97816a916871ca8d3c208c16d87cfd4790506000836000015114801561107a575060008360200151145b1561109e5760405180604001604052806000815260200160008152509150506110ca565b604051806040016040528084600001518152602001828560200151816110c057fe5b0683038152509150505b919050565b6110d7611776565b604051806040016040528060405180604001604052807f198e9393920d483a7260bfb731fb5d25f1aa493335a9e71297e485b7aef312c281526020017f1800deef121f1e76426a00665e5c4479674322d4f75edadd46debd5cd992f6ed815250815260200160405180604001604052807f090689d0585ff075ec9e99ad690c3395bc4b313370b38ef355acdadcd122975b81526020017f12c85ea5db8c6deb4aab71808dcb408fe3d1e7690c43d37b4ce6cc0166fa7daa815250815250905090565b6000606060026040519080825280602002602001820160405280156111d857816020015b6111c5611718565b8152602001906001900390816111bd5790505b5090506060600260405190808252806020026020018201604052801561121857816020015b61120561179c565b8152602001906001900390816111fd5790505b509050868260008151811061122957fe5b6020026020010181905250848260018151811061124257fe5b6020026020010181905250858160008151811061125b57fe5b6020026020010181905250838160018151811061127457fe5b602002602001018190525061128982826113c5565b92505050949350505050565b6000606060036040519080825280602002602001820160405280156112d457816020015b6112c1611718565b8152602001906001900390816112b95790505b5090506060600360405190808252806020026020018201604052801561131457816020015b61130161179c565b8152602001906001900390816112f95790505b509050888260008151811061132557fe5b6020026020010181905250868260018151811061133e57fe5b6020026020010181905250848260028151811061135757fe5b6020026020010181905250878160008151811061137057fe5b6020026020010181905250858160018151811061138957fe5b602002602001018190525083816002815181106113a257fe5b60200260200101819052506113b782826113c5565b925050509695505050505050565b600081518351146113d557600080fd5b60008351905060006006820290506060816040519080825280602002602001820160405280156114145781602001602082028038833980820191505090505b50905060008090505b838110156115ba5786818151811061143157fe5b60200260200101516000015182600060068402018151811061144f57fe5b60200260200101818152505086818151811061146757fe5b60200260200101516020015182600160068402018151811061148557fe5b60200260200101818152505085818151811061149d57fe5b6020026020010151600001516000600281106114b557fe5b60200201518260026006840201815181106114cc57fe5b6020026020010181815250508581815181106114e457fe5b6020026020010151600001516001600281106114fc57fe5b602002015182600360068402018151811061151357fe5b60200260200101818152505085818151811061152b57fe5b60200260200101516020015160006002811061154357fe5b602002015182600460068402018151811061155a57fe5b60200260200101818152505085818151811061157257fe5b60200260200101516020015160016002811061158a57fe5b60200201518260056006840201815181106115a157fe5b602002602001018181525050808060010191505061141d565b506115c36117c2565b60006020826020860260208601600060086107d05a03f1905080600081146115ea576115ec565bfe5b50806115f757600080fd5b60008260006001811061160657fe5b602002015114159550505050505092915050565b60405180610240016040528061162e611718565b815260200161163b611718565b815260200161164861179c565b8152602001611655611718565b8152602001611662611718565b815260200161166f611718565b815260200161167c611718565b8152602001611689611718565b81525090565b6040518061032001604052806116a361179c565b81526020016116b0611718565b81526020016116bd61179c565b81526020016116ca61179c565b81526020016116d7611718565b81526020016116e461179c565b81526020016116f161179c565b8152602001606081525090565b604051806040016040528060008152602001600081525090565b604051806040016040528060008152602001600081525090565b6040518060600160405280600390602082028038833980820191505090505090565b6040518060800160405280600490602082028038833980820191505090505090565b60405180608001604052806117896117e4565b81526020016117966117e4565b81525090565b60405180608001604052806117af6117e4565b81526020016117bc6117e4565b81525090565b6040518060200160405280600190602082028038833980820191505090505090565b604051806040016040528060029060208202803883398082019150509050509056fe5472616e73616374696f6e207375636365737366756c6c792076657269666965642ea165627a7a72305820e1d35629248c1d648029f5d660b66612dcbd77d43b5f78c41056177673312ae20029",
  "source": "pragma solidity >=0.4.21 <0.6.0;\n\nimport \"./ERC721Mintable.sol\";\nimport \"./Verifier.sol\";\n\n// define a contract call to the zokrates generated solidity contract <Verifier> or <renamedVerifier>\ncontract SquareVerifier is Verifier { }\n\n\n\n// define another contract named SolnSquareVerifier that inherits from your ERC721Mintable class\ncontract SolnSquareVerifier is ERC721Mintable {\n    SquareVerifier public verifier;\n\n    constructor(address verifierAddress) ERC721Mintable() public{\n        verifier = SquareVerifier(verifierAddress);\n    }\n\n    // define a solutions struct that can hold an index & an address\n    struct Solution {\n        bytes32 index;\n        address addr;\n        uint256 tokenId;\n        bool isVerified;\n    }\n\n\n    // define an array of the above struct\n    mapping(uint256 => Solution) solutions;\n\n\n    // define a mapping to store unique solutions submitted\n    mapping(bytes32 => bool) uniqueSolutions;\n\n\n    // Create an event to emit when a solution is added\n    event SolutionAdded(bytes32 index, address addr, uint256 tokenId);\n    event Log(string message);\n    event Log(uint[2] message);\n    event Log(bool message);\n\n\n    // Create a function to add the solutions to the array and emit the event\n    function addSolution(\n        uint[2] memory a, \n        uint[2] memory a_p, \n        uint[2][2] memory b, \n        uint[2] memory b_p, \n        uint[2] memory c, \n        uint[2] memory c_p,\n        uint[2] memory h, \n        uint[2] memory k, \n        uint[2] memory input,                \n        uint256 tokenId\n    ) public {\n        bytes32 index = keccak256(abi.encodePacked(a, a_p, b, b_p, c, c_p, h, k, input));\n        require(!uniqueSolutions[index], \"Solution must be unique\");\n\n        require(verifier.verifyTx(a, a_p, b, b_p, c, c_p, h, k, input), \"Solution must be verified\");\n        \n        Solution memory solution = Solution({\n            index: index, \n            addr: msg.sender,\n            tokenId: tokenId,\n            isVerified: true\n        });        \n        solutions[tokenId] = solution;\n        uniqueSolutions[index] = true;\n        emit SolutionAdded(solution.index, solution.addr, solution.tokenId);\n    }\n\n    // Create a function to mint new NFT only after the solution has been verified\n    //  - make sure the solution is unique (has not been used before)\n    //  - make sure you handle metadata as well as tokenSuplly\n    function mintToken(address to, uint256 tokenId) public returns (bool) {\n        require(solutions[tokenId].isVerified, \"Solution must be verified\");\n        require(solutions[tokenId].addr == to, \"Token owner must be the owner\");            \n        \n        super.mint(to, tokenId);        \n    }\n}\n\n\n\n\n\n\n\n\n\n\n\n\n\n\n\n\n\n\n\n\n\n\n\n\n\n\n",
  "sourcePath": "/Users/strengthandwill/workspace/blockchain-nanodegree/capstone/Blockchain-Capstone/eth-contracts/contracts/SolnSquareVerifier.sol",
  "compiler": {
    "name": "solc",
    "version": "0.5.6+commit.b259423e.Emscripten.clang"
  },
  "schemaVersion": "3.0.1",
  "updatedAt": "2021-10-16T07:35:53.672Z",
  "devdoc": {
    "methods": {}
  },
  "userdoc": {
    "methods": {}
  }
}